{
  "contractName": "ImmuLedger",
  "abi": [
    {
      "inputs": [
        {
          "internalType": "bytes32",
          "name": "",
          "type": "bytes32"
        }
      ],
      "name": "researches",
      "outputs": [
        {
          "internalType": "address",
          "name": "publisher",
          "type": "address"
        },
        {
          "internalType": "uint256",
          "name": "timestamp",
          "type": "uint256"
        },
        {
          "internalType": "string",
          "name": "title",
          "type": "string"
        }
      ],
      "stateMutability": "view",
      "type": "function",
      "constant": true
    },
    {
      "inputs": [
        {
          "internalType": "string",
          "name": "_title",
          "type": "string"
        },
        {
          "internalType": "bytes32",
          "name": "_hash",
          "type": "bytes32"
        }
      ],
      "name": "publishResearch",
      "outputs": [],
      "stateMutability": "nonpayable",
      "type": "function"
    },
    {
      "inputs": [
        {
          "internalType": "bytes32",
          "name": "_hash",
          "type": "bytes32"
        }
      ],
      "name": "getResearch",
      "outputs": [
        {
          "internalType": "address",
          "name": "",
          "type": "address"
        },
        {
          "internalType": "uint256",
          "name": "",
          "type": "uint256"
        }
      ],
      "stateMutability": "view",
      "type": "function",
      "constant": true
    }
  ],
  "bytecode": "0x608060405234801561001057600080fd5b50610abb806100206000396000f3fe608060405234801561001057600080fd5b50600436106100415760003560e01c80633855db59146100465780635c56f84214610062578063ac73794d14610094575b600080fd5b610060600480360381019061005b91906104e0565b6100c5565b005b61007c6004803603810190610077919061053c565b6101ce565b60405161008b93929190610642565b60405180910390f35b6100ae60048036038101906100a9919061053c565b6102a0565b6040516100bc929190610680565b60405180910390f35b6000806000838152602001908152602001600020600101541461011d576040517f08c379a00000000000000000000000000000000000000000000000000000000081526004016101149061071b565b60405180910390fd5b60405180606001604052803373ffffffffffffffffffffffffffffffffffffffff1681526020014281526020018381525060008083815260200190815260200160002060008201518160000160006101000a81548173ffffffffffffffffffffffffffffffffffffffff021916908373ffffffffffffffffffffffffffffffffffffffff1602179055506020820151816001015560408201518160020190816101c69190610947565b509050505050565b60006020528060005260406000206000915090508060000160009054906101000a900473ffffffffffffffffffffffffffffffffffffffff169080600101549080600201805461021d9061076a565b80601f01602080910402602001604051908101604052809291908181526020018280546102499061076a565b80156102965780601f1061026b57610100808354040283529160200191610296565b820191906000526020600020905b81548152906001019060200180831161027957829003601f168201915b5050505050905083565b600080600080600085815260200190815260200160002060010154036102fb576040517f08c379a00000000000000000000000000000000000000000000000000000000081526004016102f290610a65565b60405180910390fd5b60008084815260200190815260200160002060000160009054906101000a900473ffffffffffffffffffffffffffffffffffffffff166000808581526020019081526020016000206001015491509150915091565b6000604051905090565b600080fd5b600080fd5b600080fd5b600080fd5b6000601f19601f8301169050919050565b7f4e487b7100000000000000000000000000000000000000000000000000000000600052604160045260246000fd5b6103b78261036e565b810181811067ffffffffffffffff821117156103d6576103d561037f565b5b80604052505050565b60006103e9610350565b90506103f582826103ae565b919050565b600067ffffffffffffffff8211156104155761041461037f565b5b61041e8261036e565b9050602081019050919050565b82818337600083830152505050565b600061044d610448846103fa565b6103df565b90508281526020810184848401111561046957610468610369565b5b61047484828561042b565b509392505050565b600082601f83011261049157610490610364565b5b81356104a184826020860161043a565b91505092915050565b6000819050919050565b6104bd816104aa565b81146104c857600080fd5b50565b6000813590506104da816104b4565b92915050565b600080604083850312156104f7576104f661035a565b5b600083013567ffffffffffffffff8111156105155761051461035f565b5b6105218582860161047c565b9250506020610532858286016104cb565b9150509250929050565b6000602082840312156105525761055161035a565b5b6000610560848285016104cb565b91505092915050565b600073ffffffffffffffffffffffffffffffffffffffff82169050919050565b600061059482610569565b9050919050565b6105a481610589565b82525050565b6000819050919050565b6105bd816105aa565b82525050565b600081519050919050565b600082825260208201905092915050565b60005b838110156105fd5780820151818401526020810190506105e2565b60008484015250505050565b6000610614826105c3565b61061e81856105ce565b935061062e8185602086016105df565b6106378161036e565b840191505092915050565b6000606082019050610657600083018661059b565b61066460208301856105b4565b81810360408301526106768184610609565b9050949350505050565b6000604082019050610695600083018561059b565b6106a260208301846105b4565b9392505050565b7f5468697320726573656172636820697320616c7265616479207075626c69736860008201527f65642e0000000000000000000000000000000000000000000000000000000000602082015250565b60006107056023836105ce565b9150610710826106a9565b604082019050919050565b60006020820190508181036000830152610734816106f8565b9050919050565b7f4e487b7100000000000000000000000000000000000000000000000000000000600052602260045260246000fd5b6000600282049050600182168061078257607f821691505b6020821081036107955761079461073b565b5b50919050565b60008190508160005260206000209050919050565b60006020601f8301049050919050565b600082821b905092915050565b6000600883026107fd7fffffffffffffffffffffffffffffffffffffffffffffffffffffffffffffffff826107c0565b61080786836107c0565b95508019841693508086168417925050509392505050565b6000819050919050565b600061084461083f61083a846105aa565b61081f565b6105aa565b9050919050565b6000819050919050565b61085e83610829565b61087261086a8261084b565b8484546107cd565b825550505050565b600090565b61088761087a565b610892818484610855565b505050565b5b818110156108b6576108ab60008261087f565b600181019050610898565b5050565b601f8211156108fb576108cc8161079b565b6108d5846107b0565b810160208510156108e4578190505b6108f86108f0856107b0565b830182610897565b50505b505050565b600082821c905092915050565b600061091e60001984600802610900565b1980831691505092915050565b6000610937838361090d565b9150826002028217905092915050565b610950826105c3565b67ffffffffffffffff8111156109695761096861037f565b5b610973825461076a565b61097e8282856108ba565b600060209050601f8311600181146109b1576000841561099f578287015190505b6109a9858261092b565b865550610a11565b601f1984166109bf8661079b565b60005b828110156109e7578489015182556001820191506020850194506020810190506109c2565b86831015610a045784890151610a00601f89168261090d565b8355505b6001600288020188555050505b505050505050565b7f5468697320726573656172636820646f6573206e6f742065786973742e000000600082015250565b6000610a4f601d836105ce565b9150610a5a82610a19565b602082019050919050565b60006020820190508181036000830152610a7e81610a42565b905091905056fea2646970667358221220dc38ebca39dd6b632e31069acbb0af92baa12bd3723b698b928502c58dbfcf6b64736f6c63430008130033",
  "immutableReferences": {},
  "source": "// SPDX-License-Identifier: MIT\npragma solidity ^0.8.19;\n\ncontract ImmuLedger {\n// Define a struct for a piece of research.\nstruct Research {\n    address publisher;\n    uint timestamp;\n    string title;\n}\n\n    // This creates a state variable that stores a `Research` struct for each possible hash.\n    mapping (bytes32 => Research) public researches;\n\n    // publishResearch records a new piece of research.\n    function publishResearch(string memory _title, bytes32 _hash) public {\n    // Require that the research doesn't already exist.\n        require(researches[_hash].timestamp == 0, \"This research is already published.\");\n\n        // Record the publisher, the current time, and the title.\n        researches[_hash] = Research(msg.sender, block.timestamp, _title);\n}\n\n\n    // getResearch returns the address of the publisher and the timestamp of a piece of research.\n    function getResearch(bytes32 _hash) public view returns (address, uint256) {\n        // Require that the research exists.\n        require(researches[_hash].timestamp != 0, \"This research does not exist.\");\n\n        return (researches[_hash].publisher, researches[_hash].timestamp);\n    }\n}\n",
  "sourcePath": "/Users/ryanjvi/Nextcloud/Workplace/immuledger/contracts/ImmuLedger.sol",
  "compiler": {
    "name": "solc",
    "version": "0.8.19+commit.7dd6d404.Emscripten.clang"
  },
  "schemaVersion": "3.4.14",
  "updatedAt": "2023-07-25T00:22:05.119Z",
  "networkType": "ethereum",
  "devdoc": {
    "kind": "dev",
    "methods": {},
    "version": 1
  },
  "userdoc": {
    "kind": "user",
    "methods": {},
    "version": 1
  }
}